{
  "_format": "hh-sol-artifact-1",
  "contractName": "NFTFactory",
  "sourceName": "contracts/NFTFactory.sol",
  "abi": [
    {
      "inputs": [],
      "stateMutability": "nonpayable",
      "type": "constructor"
    },
    {
      "inputs": [
        {
          "internalType": "address",
          "name": "collection",
          "type": "address"
        }
      ],
      "name": "ALREADY_LISTED",
      "type": "error"
    },
    {
      "anonymous": false,
      "inputs": [
        {
          "indexed": false,
          "internalType": "string",
          "name": "message",
          "type": "string"
        }
      ],
      "name": "Debug",
      "type": "event"
    },
    {
      "anonymous": false,
      "inputs": [
        {
          "indexed": false,
          "internalType": "address",
          "name": "adresse",
          "type": "address"
        },
        {
          "indexed": false,
          "internalType": "string",
          "name": "name",
          "type": "string"
        },
        {
          "indexed": false,
          "internalType": "string",
          "name": "symbol",
          "type": "string"
        }
      ],
      "name": "createdNFT",
      "type": "event"
    },
    {
      "inputs": [
        {
          "internalType": "string",
          "name": "name",
          "type": "string"
        },
        {
          "internalType": "string",
          "name": "symbol",
          "type": "string"
        }
      ],
      "name": "generateNFT",
      "outputs": [],
      "stateMutability": "nonpayable",
      "type": "function"
    },
    {
      "inputs": [
        {
          "internalType": "address",
          "name": "collection",
          "type": "address"
        }
      ],
      "name": "getAlreadyListed",
      "outputs": [
        {
          "internalType": "bool",
          "name": "",
          "type": "bool"
        }
      ],
      "stateMutability": "view",
      "type": "function"
    },
    {
      "inputs": [],
      "name": "getIdMarket",
      "outputs": [
        {
          "internalType": "uint256",
          "name": "",
          "type": "uint256"
        }
      ],
      "stateMutability": "view",
      "type": "function"
    },
    {
      "inputs": [],
      "name": "getNFT",
      "outputs": [
        {
          "internalType": "contract NFT[]",
          "name": "",
          "type": "address[]"
        }
      ],
      "stateMutability": "view",
      "type": "function"
    },
    {
      "inputs": [
        {
          "internalType": "uint256",
          "name": "id",
          "type": "uint256"
        }
      ],
      "name": "getNFTNameById",
      "outputs": [
        {
          "internalType": "string",
          "name": "",
          "type": "string"
        }
      ],
      "stateMutability": "view",
      "type": "function"
    },
    {
      "inputs": [],
      "name": "idMarket",
      "outputs": [
        {
          "internalType": "uint256",
          "name": "",
          "type": "uint256"
        }
      ],
      "stateMutability": "view",
      "type": "function"
    },
    {
      "inputs": [
        {
          "internalType": "uint256",
          "name": "",
          "type": "uint256"
        }
      ],
      "name": "list",
      "outputs": [
        {
          "internalType": "contract NFT",
          "name": "",
          "type": "address"
        }
      ],
      "stateMutability": "view",
      "type": "function"
    },
    {
      "inputs": [
        {
          "internalType": "uint256",
          "name": "",
          "type": "uint256"
        }
      ],
      "name": "market",
      "outputs": [
        {
          "internalType": "uint256",
          "name": "price",
          "type": "uint256"
        },
        {
          "internalType": "address",
          "name": "seller",
          "type": "address"
        },
        {
          "internalType": "address",
          "name": "collection",
          "type": "address"
        },
        {
          "internalType": "uint256",
          "name": "timestamp",
          "type": "uint256"
        },
        {
          "internalType": "bool",
          "name": "locked",
          "type": "bool"
        }
      ],
      "stateMutability": "view",
      "type": "function"
    },
    {
      "inputs": [
        {
          "internalType": "uint256",
          "name": "price",
          "type": "uint256"
        },
        {
          "internalType": "address",
          "name": "collection",
          "type": "address"
        },
        {
          "internalType": "uint256",
          "name": "tokenId",
          "type": "uint256"
        }
      ],
      "name": "sell",
      "outputs": [],
      "stateMutability": "nonpayable",
      "type": "function"
    }
  ],
  "bytecode": "0x608060405234801561001057600080fd5b50613503806100206000396000f3fe60806040523480156200001157600080fd5b5060043610620000a05760003560e01c806380c9419e116200006f57806380c9419e146200015757806388a6360e146200018d5780638ea2bd6514620001af578063dff6a9ab14620001e5578063e4e18bfc146200020557620000a0565b80632469856514620000a557806328861d2214620000c757806367cdf6c914620001015780637571d8531462000121575b600080fd5b620000af62000227565b604051620000be919062000905565b60405180910390f35b620000e56004803603810190620000df919062000967565b62000231565b604051620000f8959493929190620009fb565b60405180910390f35b6200011f600480360381019062000119919062000a89565b620002b4565b005b6200013f600480360381019062000139919062000967565b620004d2565b6040516200014e919062000b7f565b60405180910390f35b6200017560048036038101906200016f919062000967565b62000593565b60405162000184919062000c0e565b60405180910390f35b62000197620005d3565b604051620001a6919062000cf9565b60405180910390f35b620001cd6004803603810190620001c7919062000d1d565b620006e3565b604051620001dc919062000d4f565b60405180910390f35b620002036004803603810190620001fd919062000ebd565b62000784565b005b6200020f620008d6565b6040516200021e919062000905565b60405180910390f35b6000600254905090565b60016020528060005260406000206000915090508060000154908060010160009054906101000a900473ffffffffffffffffffffffffffffffffffffffff16908060020160009054906101000a900473ffffffffffffffffffffffffffffffffffffffff16908060030154908060040160009054906101000a900460ff16905085565b60011515620002c383620006e3565b1515036200030a57816040517fda6c0c8c00000000000000000000000000000000000000000000000000000000815260040162000301919062000f42565b60405180910390fd5b6040518060a001604052808481526020013373ffffffffffffffffffffffffffffffffffffffff1681526020018373ffffffffffffffffffffffffffffffffffffffff168152602001428152602001600015158152506001600060025481526020019081526020016000206000820151816000015560208201518160010160006101000a81548173ffffffffffffffffffffffffffffffffffffffff021916908373ffffffffffffffffffffffffffffffffffffffff16021790555060408201518160020160006101000a81548173ffffffffffffffffffffffffffffffffffffffff021916908373ffffffffffffffffffffffffffffffffffffffff1602179055506060820151816003015560808201518160040160006101000a81548160ff021916908315150217905550905050600260008154809291906200044f9062000f8e565b919050555060008290508073ffffffffffffffffffffffffffffffffffffffff166323b872dd3330856040518463ffffffff1660e01b8152600401620004989392919062000fdb565b600060405180830381600087803b158015620004b357600080fd5b505af1158015620004c8573d6000803e3d6000fd5b5050505050505050565b606060008281548110620004eb57620004ea62001018565b5b9060005260206000200160009054906101000a900473ffffffffffffffffffffffffffffffffffffffff1673ffffffffffffffffffffffffffffffffffffffff166306fdde036040518163ffffffff1660e01b8152600401600060405180830381865afa15801562000561573d6000803e3d6000fd5b505050506040513d6000823e3d601f19601f820116820180604052508101906200058c9190620010c5565b9050919050565b60008181548110620005a457600080fd5b906000526020600020016000915054906101000a900473ffffffffffffffffffffffffffffffffffffffff1681565b60606000808054905067ffffffffffffffff811115620005f857620005f762000d76565b5b604051908082528060200260200182016040528015620006275781602001602082028036833780820191505090505b50905060005b600080549050811015620006db576000818154811062000652576200065162001018565b5b9060005260206000200160009054906101000a900473ffffffffffffffffffffffffffffffffffffffff1682828151811062000693576200069262001018565b5b602002602001019073ffffffffffffffffffffffffffffffffffffffff16908173ffffffffffffffffffffffffffffffffffffffff168152505080806001019150506200062d565b508091505090565b600080600090505b60025481101562000779578273ffffffffffffffffffffffffffffffffffffffff166001600083815260200190815260200160002060020160009054906101000a900473ffffffffffffffffffffffffffffffffffffffff1673ffffffffffffffffffffffffffffffffffffffff16036200076b5760019150506200077f565b8080600101915050620006eb565b50600090505b919050565b7f7cdb51e9dbbc205231228146c3246e7f914aa6d4a33170e43ecc8e3593481d1a604051620007b39062001166565b60405180910390a160008282604051620007cd90620008dc565b620007da92919062001188565b604051809103906000f080158015620007f7573d6000803e3d6000fd5b5090506000819080600181540180825580915050600190039060005260206000200160009091909190916101000a81548173ffffffffffffffffffffffffffffffffffffffff021916908373ffffffffffffffffffffffffffffffffffffffff1602179055507fd65f46be5456d9cf3ba4ff287514e625ff82a2c90f6401c49ae413ceb93c966a8184846040516200089293929190620011c3565b60405180910390a17f7cdb51e9dbbc205231228146c3246e7f914aa6d4a33170e43ecc8e3593481d1a604051620008c9906200125e565b60405180910390a1505050565b60025481565b61224d806200128183390190565b6000819050919050565b620008ff81620008ea565b82525050565b60006020820190506200091c6000830184620008f4565b92915050565b6000604051905090565b600080fd5b600080fd5b6200094181620008ea565b81146200094d57600080fd5b50565b600081359050620009618162000936565b92915050565b60006020828403121562000980576200097f6200092c565b5b6000620009908482850162000950565b91505092915050565b600073ffffffffffffffffffffffffffffffffffffffff82169050919050565b6000620009c68262000999565b9050919050565b620009d881620009b9565b82525050565b60008115159050919050565b620009f581620009de565b82525050565b600060a08201905062000a126000830188620008f4565b62000a216020830187620009cd565b62000a306040830186620009cd565b62000a3f6060830185620008f4565b62000a4e6080830184620009ea565b9695505050505050565b62000a6381620009b9565b811462000a6f57600080fd5b50565b60008135905062000a838162000a58565b92915050565b60008060006060848603121562000aa55762000aa46200092c565b5b600062000ab58682870162000950565b935050602062000ac88682870162000a72565b925050604062000adb8682870162000950565b9150509250925092565b600081519050919050565b600082825260208201905092915050565b60005b8381101562000b2157808201518184015260208101905062000b04565b60008484015250505050565b6000601f19601f8301169050919050565b600062000b4b8262000ae5565b62000b57818562000af0565b935062000b6981856020860162000b01565b62000b748162000b2d565b840191505092915050565b6000602082019050818103600083015262000b9b818462000b3e565b905092915050565b6000819050919050565b600062000bce62000bc862000bc28462000999565b62000ba3565b62000999565b9050919050565b600062000be28262000bad565b9050919050565b600062000bf68262000bd5565b9050919050565b62000c088162000be9565b82525050565b600060208201905062000c25600083018462000bfd565b92915050565b600081519050919050565b600082825260208201905092915050565b6000819050602082019050919050565b62000c628162000be9565b82525050565b600062000c76838362000c57565b60208301905092915050565b6000602082019050919050565b600062000c9c8262000c2b565b62000ca8818562000c36565b935062000cb58362000c47565b8060005b8381101562000cec57815162000cd0888262000c68565b975062000cdd8362000c82565b92505060018101905062000cb9565b5085935050505092915050565b6000602082019050818103600083015262000d15818462000c8f565b905092915050565b60006020828403121562000d365762000d356200092c565b5b600062000d468482850162000a72565b91505092915050565b600060208201905062000d666000830184620009ea565b92915050565b600080fd5b600080fd5b7f4e487b7100000000000000000000000000000000000000000000000000000000600052604160045260246000fd5b62000db08262000b2d565b810181811067ffffffffffffffff8211171562000dd25762000dd162000d76565b5b80604052505050565b600062000de762000922565b905062000df5828262000da5565b919050565b600067ffffffffffffffff82111562000e185762000e1762000d76565b5b62000e238262000b2d565b9050602081019050919050565b82818337600083830152505050565b600062000e5662000e508462000dfa565b62000ddb565b90508281526020810184848401111562000e755762000e7462000d71565b5b62000e8284828562000e30565b509392505050565b600082601f83011262000ea25762000ea162000d6c565b5b813562000eb484826020860162000e3f565b91505092915050565b6000806040838503121562000ed75762000ed66200092c565b5b600083013567ffffffffffffffff81111562000ef85762000ef762000931565b5b62000f068582860162000e8a565b925050602083013567ffffffffffffffff81111562000f2a5762000f2962000931565b5b62000f388582860162000e8a565b9150509250929050565b600060208201905062000f596000830184620009cd565b92915050565b7f4e487b7100000000000000000000000000000000000000000000000000000000600052601160045260246000fd5b600062000f9b82620008ea565b91507fffffffffffffffffffffffffffffffffffffffffffffffffffffffffffffffff820362000fd05762000fcf62000f5f565b5b600182019050919050565b600060608201905062000ff26000830186620009cd565b620010016020830185620009cd565b620010106040830184620008f4565b949350505050565b7f4e487b7100000000000000000000000000000000000000000000000000000000600052603260045260246000fd5b60006200105e620010588462000dfa565b62000ddb565b9050828152602081018484840111156200107d576200107c62000d71565b5b6200108a84828562000b01565b509392505050565b600082601f830112620010aa57620010a962000d6c565b5b8151620010bc84826020860162001047565b91505092915050565b600060208284031215620010de57620010dd6200092c565b5b600082015167ffffffffffffffff811115620010ff57620010fe62000931565b5b6200110d8482850162001092565b91505092915050565b7f67656e65726174654e4654207374617274656400000000000000000000000000600082015250565b60006200114e60138362000af0565b91506200115b8262001116565b602082019050919050565b6000602082019050818103600083015262001181816200113f565b9050919050565b60006040820190508181036000830152620011a4818562000b3e565b90508181036020830152620011ba818462000b3e565b90509392505050565b6000606082019050620011da6000830186620009cd565b8181036020830152620011ee818562000b3e565b9050818103604083015262001204818462000b3e565b9050949350505050565b7f67656e65726174654e46542066696e6973686564000000000000000000000000600082015250565b60006200124660148362000af0565b915062001253826200120e565b602082019050919050565b60006020820190508181036000830152620012798162001237565b905091905056fe60806040523480156200001157600080fd5b506040516200224d3803806200224d8339818101604052810190620000379190620001fa565b818181600090816200004a9190620004ca565b5080600190816200005c9190620004ca565b5050505050620005b1565b6000604051905090565b600080fd5b600080fd5b600080fd5b600080fd5b6000601f19601f8301169050919050565b7f4e487b7100000000000000000000000000000000000000000000000000000000600052604160045260246000fd5b620000d08262000085565b810181811067ffffffffffffffff82111715620000f257620000f162000096565b5b80604052505050565b60006200010762000067565b9050620001158282620000c5565b919050565b600067ffffffffffffffff82111562000138576200013762000096565b5b620001438262000085565b9050602081019050919050565b60005b838110156200017057808201518184015260208101905062000153565b60008484015250505050565b6000620001936200018d846200011a565b620000fb565b905082815260208101848484011115620001b257620001b162000080565b5b620001bf84828562000150565b509392505050565b600082601f830112620001df57620001de6200007b565b5b8151620001f18482602086016200017c565b91505092915050565b6000806040838503121562000214576200021362000071565b5b600083015167ffffffffffffffff81111562000235576200023462000076565b5b6200024385828601620001c7565b925050602083015167ffffffffffffffff81111562000267576200026662000076565b5b6200027585828601620001c7565b9150509250929050565b600081519050919050565b7f4e487b7100000000000000000000000000000000000000000000000000000000600052602260045260246000fd5b60006002820490506001821680620002d257607f821691505b602082108103620002e857620002e76200028a565b5b50919050565b60008190508160005260206000209050919050565b60006020601f8301049050919050565b600082821b905092915050565b600060088302620003527fffffffffffffffffffffffffffffffffffffffffffffffffffffffffffffffff8262000313565b6200035e868362000313565b95508019841693508086168417925050509392505050565b6000819050919050565b6000819050919050565b6000620003ab620003a56200039f8462000376565b62000380565b62000376565b9050919050565b6000819050919050565b620003c7836200038a565b620003df620003d682620003b2565b84845462000320565b825550505050565b600090565b620003f6620003e7565b62000403818484620003bc565b505050565b5b818110156200042b576200041f600082620003ec565b60018101905062000409565b5050565b601f8211156200047a576200044481620002ee565b6200044f8462000303565b810160208510156200045f578190505b620004776200046e8562000303565b83018262000408565b50505b505050565b600082821c905092915050565b60006200049f600019846008026200047f565b1980831691505092915050565b6000620004ba83836200048c565b9150826002028217905092915050565b620004d5826200027f565b67ffffffffffffffff811115620004f157620004f062000096565b5b620004fd8254620002b9565b6200050a8282856200042f565b600060209050601f8311600181146200054257600084156200052d578287015190505b620005398582620004ac565b865550620005a9565b601f1984166200055286620002ee565b60005b828110156200057c5784890151825560018201915060208501945060208101905062000555565b868310156200059c578489015162000598601f8916826200048c565b8355505b6001600288020188555050505b505050505050565b611c8c80620005c16000396000f3fe608060405234801561001057600080fd5b50600436106100cf5760003560e01c80636352211e1161008c578063a22cb46511610066578063a22cb46514610224578063b88d4fde14610240578063c87b56dd1461025c578063e985e9c51461028c576100cf565b80636352211e146101a657806370a08231146101d657806395d89b4114610206576100cf565b806301ffc9a7146100d457806306fdde0314610104578063081812fc14610122578063095ea7b31461015257806323b872dd1461016e57806342842e0e1461018a575b600080fd5b6100ee60048036038101906100e991906114d6565b6102bc565b6040516100fb919061151e565b60405180910390f35b61010c61039e565b60405161011991906115c9565b60405180910390f35b61013c60048036038101906101379190611621565b610430565b604051610149919061168f565b60405180910390f35b61016c600480360381019061016791906116d6565b61044c565b005b61018860048036038101906101839190611716565b610462565b005b6101a4600480360381019061019f9190611716565b610472565b005b6101c060048036038101906101bb9190611621565b610492565b6040516101cd919061168f565b60405180910390f35b6101f060048036038101906101eb9190611769565b6104a4565b6040516101fd91906117a5565b60405180910390f35b61020e61055e565b60405161021b91906115c9565b60405180910390f35b61023e600480360381019061023991906117ec565b6105f0565b005b61025a60048036038101906102559190611961565b610606565b005b61027660048036038101906102719190611621565b610623565b60405161028391906115c9565b60405180910390f35b6102a660048036038101906102a191906119e4565b61068c565b6040516102b3919061151e565b60405180910390f35b60007f80ac58cd000000000000000000000000000000000000000000000000000000007bffffffffffffffffffffffffffffffffffffffffffffffffffffffff1916827bffffffffffffffffffffffffffffffffffffffffffffffffffffffff1916148061038757507f5b5e139f000000000000000000000000000000000000000000000000000000007bffffffffffffffffffffffffffffffffffffffffffffffffffffffff1916827bffffffffffffffffffffffffffffffffffffffffffffffffffffffff1916145b80610397575061039682610720565b5b9050919050565b6060600080546103ad90611a53565b80601f01602080910402602001604051908101604052809291908181526020018280546103d990611a53565b80156104265780601f106103fb57610100808354040283529160200191610426565b820191906000526020600020905b81548152906001019060200180831161040957829003601f168201915b5050505050905090565b600061043b8261078a565b5061044582610812565b9050919050565b61045e828261045961084f565b610857565b5050565b61046d838383610869565b505050565b61048d83838360405180602001604052806000815250610606565b505050565b600061049d8261078a565b9050919050565b60008073ffffffffffffffffffffffffffffffffffffffff168273ffffffffffffffffffffffffffffffffffffffff16036105175760006040517f89c62b6400000000000000000000000000000000000000000000000000000000815260040161050e919061168f565b60405180910390fd5b600360008373ffffffffffffffffffffffffffffffffffffffff1673ffffffffffffffffffffffffffffffffffffffff168152602001908152602001600020549050919050565b60606001805461056d90611a53565b80601f016020809104026020016040519081016040528092919081815260200182805461059990611a53565b80156105e65780601f106105bb576101008083540402835291602001916105e6565b820191906000526020600020905b8154815290600101906020018083116105c957829003601f168201915b5050505050905090565b6106026105fb61084f565b838361096b565b5050565b610611848484610462565b61061d84848484610ada565b50505050565b606061062e8261078a565b506000610639610c91565b905060008151116106595760405180602001604052806000815250610684565b8061066384610ca8565b604051602001610674929190611ac0565b6040516020818303038152906040525b915050919050565b6000600560008473ffffffffffffffffffffffffffffffffffffffff1673ffffffffffffffffffffffffffffffffffffffff16815260200190815260200160002060008373ffffffffffffffffffffffffffffffffffffffff1673ffffffffffffffffffffffffffffffffffffffff16815260200190815260200160002060009054906101000a900460ff16905092915050565b60007f01ffc9a7000000000000000000000000000000000000000000000000000000007bffffffffffffffffffffffffffffffffffffffffffffffffffffffff1916827bffffffffffffffffffffffffffffffffffffffffffffffffffffffff1916149050919050565b60008061079683610d76565b9050600073ffffffffffffffffffffffffffffffffffffffff168173ffffffffffffffffffffffffffffffffffffffff160361080957826040517f7e27328900000000000000000000000000000000000000000000000000000000815260040161080091906117a5565b60405180910390fd5b80915050919050565b60006004600083815260200190815260200160002060009054906101000a900473ffffffffffffffffffffffffffffffffffffffff169050919050565b600033905090565b6108648383836001610db3565b505050565b600073ffffffffffffffffffffffffffffffffffffffff168273ffffffffffffffffffffffffffffffffffffffff16036108db5760006040517f64a0ae920000000000000000000000000000000000000000000000000000000081526004016108d2919061168f565b60405180910390fd5b60006108ef83836108ea61084f565b610f78565b90508373ffffffffffffffffffffffffffffffffffffffff168173ffffffffffffffffffffffffffffffffffffffff1614610965578382826040517f64283d7b00000000000000000000000000000000000000000000000000000000815260040161095c93929190611ae4565b60405180910390fd5b50505050565b600073ffffffffffffffffffffffffffffffffffffffff168273ffffffffffffffffffffffffffffffffffffffff16036109dc57816040517f5b08ba180000000000000000000000000000000000000000000000000000000081526004016109d3919061168f565b60405180910390fd5b80600560008573ffffffffffffffffffffffffffffffffffffffff1673ffffffffffffffffffffffffffffffffffffffff16815260200190815260200160002060008473ffffffffffffffffffffffffffffffffffffffff1673ffffffffffffffffffffffffffffffffffffffff16815260200190815260200160002060006101000a81548160ff0219169083151502179055508173ffffffffffffffffffffffffffffffffffffffff168373ffffffffffffffffffffffffffffffffffffffff167f17307eab39ab6107e8899845ad3d59bd9653f200f220920489ca2b5937696c3183604051610acd919061151e565b60405180910390a3505050565b60008373ffffffffffffffffffffffffffffffffffffffff163b1115610c8b578273ffffffffffffffffffffffffffffffffffffffff1663150b7a02610b1e61084f565b8685856040518563ffffffff1660e01b8152600401610b409493929190611b70565b6020604051808303816000875af1925050508015610b7c57506040513d601f19601f82011682018060405250810190610b799190611bd1565b60015b610c00573d8060008114610bac576040519150601f19603f3d011682016040523d82523d6000602084013e610bb1565b606091505b506000815103610bf857836040517f64a0ae92000000000000000000000000000000000000000000000000000000008152600401610bef919061168f565b60405180910390fd5b805181602001fd5b63150b7a0260e01b7bffffffffffffffffffffffffffffffffffffffffffffffffffffffff1916817bffffffffffffffffffffffffffffffffffffffffffffffffffffffff191614610c8957836040517f64a0ae92000000000000000000000000000000000000000000000000000000008152600401610c80919061168f565b60405180910390fd5b505b50505050565b606060405180602001604052806000815250905090565b606060006001610cb784611192565b01905060008167ffffffffffffffff811115610cd657610cd5611836565b5b6040519080825280601f01601f191660200182016040528015610d085781602001600182028036833780820191505090505b509050600082602001820190505b600115610d6b578080600190039150507f3031323334353637383961626364656600000000000000000000000000000000600a86061a8153600a8581610d5f57610d5e611bfe565b5b04945060008503610d16575b819350505050919050565b60006002600083815260200190815260200160002060009054906101000a900473ffffffffffffffffffffffffffffffffffffffff169050919050565b8080610dec5750600073ffffffffffffffffffffffffffffffffffffffff168273ffffffffffffffffffffffffffffffffffffffff1614155b15610f20576000610dfc8461078a565b9050600073ffffffffffffffffffffffffffffffffffffffff168373ffffffffffffffffffffffffffffffffffffffff1614158015610e6757508273ffffffffffffffffffffffffffffffffffffffff168173ffffffffffffffffffffffffffffffffffffffff1614155b8015610e7a5750610e78818461068c565b155b15610ebc57826040517fa9fbf51f000000000000000000000000000000000000000000000000000000008152600401610eb3919061168f565b60405180910390fd5b8115610f1e57838573ffffffffffffffffffffffffffffffffffffffff168273ffffffffffffffffffffffffffffffffffffffff167f8c5be1e5ebec7d5bd14f71427d1e84f3dd0314c0f7b2291e5b200ac8c7c3b92560405160405180910390a45b505b836004600085815260200190815260200160002060006101000a81548173ffffffffffffffffffffffffffffffffffffffff021916908373ffffffffffffffffffffffffffffffffffffffff16021790555050505050565b600080610f8484610d76565b9050600073ffffffffffffffffffffffffffffffffffffffff168373ffffffffffffffffffffffffffffffffffffffff1614610fc657610fc58184866112e5565b5b600073ffffffffffffffffffffffffffffffffffffffff168173ffffffffffffffffffffffffffffffffffffffff161461105757611008600085600080610db3565b6001600360008373ffffffffffffffffffffffffffffffffffffffff1673ffffffffffffffffffffffffffffffffffffffff168152602001908152602001600020600082825403925050819055505b600073ffffffffffffffffffffffffffffffffffffffff168573ffffffffffffffffffffffffffffffffffffffff16146110da576001600360008773ffffffffffffffffffffffffffffffffffffffff1673ffffffffffffffffffffffffffffffffffffffff168152602001908152602001600020600082825401925050819055505b846002600086815260200190815260200160002060006101000a81548173ffffffffffffffffffffffffffffffffffffffff021916908373ffffffffffffffffffffffffffffffffffffffff160217905550838573ffffffffffffffffffffffffffffffffffffffff168273ffffffffffffffffffffffffffffffffffffffff167fddf252ad1be2c89b69c2b068fc378daa952ba7f163c4a11628f55a4df523b3ef60405160405180910390a4809150509392505050565b600080600090507a184f03e93ff9f4daa797ed6e38ed64bf6a1f01000000000000000083106111f0577a184f03e93ff9f4daa797ed6e38ed64bf6a1f01000000000000000083816111e6576111e5611bfe565b5b0492506040810190505b6d04ee2d6d415b85acef8100000000831061122d576d04ee2d6d415b85acef8100000000838161122357611222611bfe565b5b0492506020810190505b662386f26fc10000831061125c57662386f26fc10000838161125257611251611bfe565b5b0492506010810190505b6305f5e1008310611285576305f5e100838161127b5761127a611bfe565b5b0492506008810190505b61271083106112aa5761271083816112a05761129f611bfe565b5b0492506004810190505b606483106112cd57606483816112c3576112c2611bfe565b5b0492506002810190505b600a83106112dc576001810190505b80915050919050565b6112f08383836113a9565b6113a457600073ffffffffffffffffffffffffffffffffffffffff168373ffffffffffffffffffffffffffffffffffffffff160361136557806040517f7e27328900000000000000000000000000000000000000000000000000000000815260040161135c91906117a5565b60405180910390fd5b81816040517f177e802f00000000000000000000000000000000000000000000000000000000815260040161139b929190611c2d565b60405180910390fd5b505050565b60008073ffffffffffffffffffffffffffffffffffffffff168373ffffffffffffffffffffffffffffffffffffffff161415801561146157508273ffffffffffffffffffffffffffffffffffffffff168473ffffffffffffffffffffffffffffffffffffffff1614806114225750611421848461068c565b5b8061146057508273ffffffffffffffffffffffffffffffffffffffff1661144883610812565b73ffffffffffffffffffffffffffffffffffffffff16145b5b90509392505050565b6000604051905090565b600080fd5b600080fd5b60007fffffffff0000000000000000000000000000000000000000000000000000000082169050919050565b6114b38161147e565b81146114be57600080fd5b50565b6000813590506114d0816114aa565b92915050565b6000602082840312156114ec576114eb611474565b5b60006114fa848285016114c1565b91505092915050565b60008115159050919050565b61151881611503565b82525050565b6000602082019050611533600083018461150f565b92915050565b600081519050919050565b600082825260208201905092915050565b60005b83811015611573578082015181840152602081019050611558565b60008484015250505050565b6000601f19601f8301169050919050565b600061159b82611539565b6115a58185611544565b93506115b5818560208601611555565b6115be8161157f565b840191505092915050565b600060208201905081810360008301526115e38184611590565b905092915050565b6000819050919050565b6115fe816115eb565b811461160957600080fd5b50565b60008135905061161b816115f5565b92915050565b60006020828403121561163757611636611474565b5b60006116458482850161160c565b91505092915050565b600073ffffffffffffffffffffffffffffffffffffffff82169050919050565b60006116798261164e565b9050919050565b6116898161166e565b82525050565b60006020820190506116a46000830184611680565b92915050565b6116b38161166e565b81146116be57600080fd5b50565b6000813590506116d0816116aa565b92915050565b600080604083850312156116ed576116ec611474565b5b60006116fb858286016116c1565b925050602061170c8582860161160c565b9150509250929050565b60008060006060848603121561172f5761172e611474565b5b600061173d868287016116c1565b935050602061174e868287016116c1565b925050604061175f8682870161160c565b9150509250925092565b60006020828403121561177f5761177e611474565b5b600061178d848285016116c1565b91505092915050565b61179f816115eb565b82525050565b60006020820190506117ba6000830184611796565b92915050565b6117c981611503565b81146117d457600080fd5b50565b6000813590506117e6816117c0565b92915050565b6000806040838503121561180357611802611474565b5b6000611811858286016116c1565b9250506020611822858286016117d7565b9150509250929050565b600080fd5b600080fd5b7f4e487b7100000000000000000000000000000000000000000000000000000000600052604160045260246000fd5b61186e8261157f565b810181811067ffffffffffffffff8211171561188d5761188c611836565b5b80604052505050565b60006118a061146a565b90506118ac8282611865565b919050565b600067ffffffffffffffff8211156118cc576118cb611836565b5b6118d58261157f565b9050602081019050919050565b82818337600083830152505050565b60006119046118ff846118b1565b611896565b9050828152602081018484840111156119205761191f611831565b5b61192b8482856118e2565b509392505050565b600082601f8301126119485761194761182c565b5b81356119588482602086016118f1565b91505092915050565b6000806000806080858703121561197b5761197a611474565b5b6000611989878288016116c1565b945050602061199a878288016116c1565b93505060406119ab8782880161160c565b925050606085013567ffffffffffffffff8111156119cc576119cb611479565b5b6119d887828801611933565b91505092959194509250565b600080604083850312156119fb576119fa611474565b5b6000611a09858286016116c1565b9250506020611a1a858286016116c1565b9150509250929050565b7f4e487b7100000000000000000000000000000000000000000000000000000000600052602260045260246000fd5b60006002820490506001821680611a6b57607f821691505b602082108103611a7e57611a7d611a24565b5b50919050565b600081905092915050565b6000611a9a82611539565b611aa48185611a84565b9350611ab4818560208601611555565b80840191505092915050565b6000611acc8285611a8f565b9150611ad88284611a8f565b91508190509392505050565b6000606082019050611af96000830186611680565b611b066020830185611796565b611b136040830184611680565b949350505050565b600081519050919050565b600082825260208201905092915050565b6000611b4282611b1b565b611b4c8185611b26565b9350611b5c818560208601611555565b611b658161157f565b840191505092915050565b6000608082019050611b856000830187611680565b611b926020830186611680565b611b9f6040830185611796565b8181036060830152611bb18184611b37565b905095945050505050565b600081519050611bcb816114aa565b92915050565b600060208284031215611be757611be6611474565b5b6000611bf584828501611bbc565b91505092915050565b7f4e487b7100000000000000000000000000000000000000000000000000000000600052601260045260246000fd5b6000604082019050611c426000830185611680565b611c4f6020830184611796565b939250505056fea2646970667358221220b238f9d7cd97f3e7622a44d6e9f399a91c97412db8dd36a01fb3b63bdef8c7aa64736f6c63430008180033a264697066735822122007e23ab93ffd14ea96e11a8d2449062384e9f1331970dae908787ad229d23db064736f6c63430008180033",
  "linkReferences": {},
  "deployedLinkReferences": {}
}